:020000041000EA
:1000000000B5324B212058609868022188439860DF
:10001000D860186158612E4B002199600221596106
:100020000121F02299502B49196001219960352056
:1000300000F044F80222904214D00621196600F024
:1000400034F8196E01211966002018661A6600F04E
:100050002CF8196E196E196E052000F02FF8012189
:100060000842F9D1002199601B49196000215960AB
:100070001A491B48016001219960EB211966A021F2
:10008000196600F012F800219960164914480160C1
:100090000121996001BC002800D000471248134993
:1000A000086003C880F30888084703B5996A0420EC
:1000B0000142FBD001200142F8D103BD02B5186610
:1000C0001866FFF7F2FF186E186E02BD00000240BE
:1000D000000000180000070000035F00212200005C
:1000E000F4000018222000A00001001008ED00E03C
:1000F00000000000000000000000000074B24E7A12
:1001000000200420F7010010C3010010C5010010F9
:10011000C1010010C1010010C1010010C101001097
:10012000C1010010C1010010C1010010C701001081
:10013000C1010010C1010010C9010010CB01001065
:10014000CD010010CD010010CD010010CD01001037
:10015000CD010010CD010010CD010010CD01001027
:10016000CD010010CD010010CD010010CD01001017
:10017000CD010010CD010010CD010010CD01001007
:10018000CD010010CD010010CD010010CD010010F7
:10019000CD010010CD010010CD010010CD010010E7
:1001A000CD010010CD010010CD010010CD010010D7
:1001B000CD010010CD010010CD010010CD010010C7
:1001C00000BE00BE00BE00BE00BE00BEEFF3058054
:1001D000103800BEF2EB887188C60010ACC6001063
:1001E0003402001090A31AE700201F49086006C8D7
:1001F00081F3088810471D48006800282FD10DA4FE
:100200000ECC002902D000F012F8F9E71849194A7B
:10021000002000E001C19142FCD1174988471749ED
:1002200088471749884700BEFDE701C901C29A42C5
:10023000FBD37047ACC60010C0000020B40C0020F7
:10024000A0D200100000042000000420A0D2001062
:10025000001004200010042000000000704709482E
:1002600003F010F80047000008ED00E0000000D0A7
:10027000B80C0020381100206D1F00104D05001033
:100280002D1F00105756000006005250ABB36053AC
:1002900040BA001006005250861C030250BA0010EB
:1002A000060052505422A29D58BA00100500525028
:1002B000DE65F468A0D20010F8B5C0460448054BCE
:1002C00010B5834203D0044B002B00D0984710BDDB
:1002D000B40C0020B40C00200000000006480749C0
:1002E000091A8B10C90FC91810B5491003D0044B57
:1002F000002B00D0984710BDB40C0020B40C002097
:100300000000000010B5074C2378002B09D1FFF73F
:10031000D5FF054B002B02D0044800E000BF0123AD
:10032000237010BDB80D002000000000E0AC0010EC
:10033000054B10B5002B03D00449054800E000BF71
:10034000FFF7CCFF10BDC04600000000BC0D002030
:10035000E0AC001010B582B00C00144BC3185A4228
:100360005341134A5B009B5E8B4204D06B46DA1DFF
:100370001470002115E06B46DA1D0D231370002167
:100380000029F3D183699B06FCD413780360013103
:100390000132F5E783699B06FCD4137803600131D1
:1003A00001320029F6D002B010BDC0460080FCBF6B
:1003B0002C11002030B583B004000D00002313E0A1
:1003C0006B46DA1D1170002006E0A3699B06FCD481
:1003D00013782360013001320028F6D02B780D3BD2
:1003E0005A425341DBB201352978002905D0002B50
:1003F000E6D12000FFF7AEFFF0E703B030BD82B0DA
:1004000000226B46D91D06E08369DB06FCD4036835
:100410000B7001320131002AF6D06B46D87902B058
:100420007047000083001B189B000B488446634400
:1004300000290CD01020824000290AD007491868F2
:1004400042400A40802149010B431A60704708006E
:10045000F1E70349F3E7C0460C0005400000FFFF49
:10046000FFFF000010B519280BDC00280FDB192353
:100470001B1A0A4A5A4392B200210020FFF7D2FF0A
:1004800010BD002200210020FFF7CCFFF8E7044A4E
:1004900000210020FFF7C6FFF2E7C046C4090000B4
:1004A00024F4000070B582B017E0154C2100154807
:1004B000FFF780FF144E33680025E554019513497A
:1004C00001AA200004F004FF0198FFF7CBFF35607C
:1004D00025700F4A1368013313600A4B9B69DB06D2
:1004E0000CD40848FFF78BFF0D28DED0064B1A68A6
:1004F000034988541A6801321A60EAE702B070BDF5
:10050000A00E0020004003409C0E0020E0AC001034
:10051000240E002010B50421102000F061F8084BD3
:10052000A02292005A60074A1A61196801238B437E
:1005300005490B6000210020FFF774FF10BDC04685
:100540000000054024F400000010054070B504F0E0
:1005500001F9E1211D4C4902200001F0D3FA0221EA
:10056000002000F03DF80221012000F039F8236B53
:10057000C02212021340164A1360002301220821F0
:10058000200001F08DFA0021200001F09FFA1149AE
:10059000142000F03DF90121142000F029F9502326
:1005A000A363626B183B13400B4A1360112000F0E9
:1005B0002FF8D0252D068026B6026E62FFF7AAFF1F
:1005C00006492000FFF7F6FE6E61FEE7004003409B
:1005D00030500340A504001034500340E4AC001038
:1005E00010B58300084A944663441A684024624068
:1005F000803414408022520113431C60C000034B1E
:100600009C466044416010BD04C001400040014070
:1006100010B501238340D022120693629361052115
:10062000FFF7DEFF10BD0000034B1B6802201840DF
:10063000431E9841C0B2704700C00640EFF31080DF
:1006400072B6034B1B68002BFBD0BFF35F8F704764
:100650002C0100D0BFF35F8F024B00221A6080F3A1
:10066000108870472C0100D0F8B506000C0015006A
:10067000FFF7E4FFE308F718F15C072222400123AB
:1006800093400B4205D1DBB20B433B70FFF7E2FF17
:10069000F8BD2100280001F0E5FC0000002307E080
:1006A000054A9A189200BFF35F8F00211160013351
:1006B0001F2BF5D97047C04640000034054A10781A
:1006C000431CDBB21370172B02D9130010221A70CF
:1006D0007047C04638020020074B9B6810308000EE
:1006E0001950BFF35F8FBFF35F8F044B0021196078
:1006F00082F310887047C04600ED00E0240100D06E
:1007000010B50388DA0A1C2A05D15B055B15023394
:100710005B00C01810BD034B034A0448B12101F02F
:1007200009FCC04600AD00109CAE001018AD0010D2
:1007300010B5091A0B1F0A4A88180A4A904208D8AD
:10074000C90706D45B105B055B0D0748184380B2F0
:1007500010BD064B064A0748A32101F0EBFBC0463B
:10076000FC070000FE0F000000E0FFFF58AD001086
:1007700090AE001018AD001010B5091A04394A08DF
:10078000090B08D14905490D064B0B430380064B65
:100790001343438010BD054B054A0648AB2101F0C9
:1007A000C9FBC04600F0FFFF00F8FFFF88AD001056
:1007B00064AE001018AD001001238340034A106896
:1007C0001840431E9841C0B27047C04600E100E0A7
:1007D000002904D0034B1860034B18607047034B8B
:1007E0001860FBE780E200E000E100E080E100E06B
:1007F00010B5012383401800FFF7EAFF10BD000089
:10080000024B9B6810308000C058704700ED00E03C
:1008100070B504000D00EFF3108672B60C4B1B6828
:10082000002BFBD0BFF35F8F2000FFF7E9FF094BE0
:10083000984201D0A84205D1320029002000FFF7DC
:100840004BFF70BD044B054A0548862101F072FB41
:10085000240100D0CD01001098AD0010ACAE001006
:1008600018AD0010F0B5CE46474680B583B00600FF
:100870000D00EFF3108872B64F4B1B68002BFBD0B6
:10088000BFF35F8F4D4B9A6834001034A300D758E4
:100890004B4B9F4207D0AF4200D18BE00197494BB1
:1008A000FB1A2F2B09D9424639003000FFF714FFFD
:1008B00003B0C0BCB946B046F0BD3000FFF77CFFC6
:1008C000814600213000FFF793FFBFF35F8FEFF306
:1008D0000581002901D08C4211D10123019C9C4348
:1008E0000020A368AB4212D00622A256002A0DDBDC
:1008F00053009B189B00334A2000D418F1E7324B79
:10090000324A36213248FF3101F014FB2000AB425D
:1009100049D106256557002D2BDB2A4B6A00521959
:1009200092009B189A68A260DA79E2719B795BB2B7
:10093000A371002B0FDA2748A080224B6A005219BE
:1009400092009B18244A117899711570494630001D
:10095000FFF74EFFA7E7680040198000194BC01849
:100960000430FFF7CDFE0100231D1800FFF7E0FE65
:10097000E2E7002912D100280ED0FF238371174B24
:10098000838015490B78A3710E4A154BA41A644154
:1009900063431B0D0B70D9E7094FF2E71149201D86
:1009A000FFF7EAFED2E7104B084A6A210848FF31F8
:1009B00001F0C0FA024F76E7240100D000ED00E01C
:1009C000CD0100103C020020D0AD00107CAE001024
:1009D00018AD001001BD00003511002001BDFFFF62
:1009E000AAAA00007602002004AE001070B5012211
:1009F00002432E4BD31A2F2B28D8EFF30583002B5D
:100A00002BD0EFF3108C72B6294909680029FBD06E
:100A1000BFF35F8F254C274905002D1B6D416943AE
:100A2000090D4CB2244989689B00C95891421BD0DA
:100A30000021032932D81D4B4A00521892009B18FE
:100A40009B795BB2A3421FD00131F2E71B4B1C4ADA
:100A5000C7211C48490001F06DFA1B4B184A92212E
:100A60001848FF3101F066FA134A92681749D150CD
:100A7000174B1A7882711C70BFF35F8F0C4B0022EA
:100A80001A608CF3108870BD084B4A005518AD00F1
:100A90005D19FF26AE710F4AAA80E9E70E4B084A9E
:100AA000D1210848490001F045FAC0463C02002027
:100AB000240100D0AAAA000000ED00E00CAE001056
:100AC00048AE001018AD001034AE0010CD0100107B
:100AD0003511002001BDFFFF40AE00100022044B85
:100AE00002E0044902C30132072AFAD97047C0461E
:100AF00000E400E080808080024B9C4661448900D5
:100B0000016070474000003410B50400FFF7D6FDC7
:100B100001002000FFF7F0FFFF232371BFF35F8F79
:100B200010BD10B50400FFF7C9FD01002000FFF75C
:100B3000E3FFFF23237100236371BFF35F8F10BDB9
:100B4000084B5B6A994209D8064A926A824207D2E8
:100B5000994201D0012002E0002000E0002070470F
:100B60000120FCE70040054010B500290AD00368C9
:100B70001B7B8B4206D38068054B9C466144090170
:100B8000401810BD034B044A04483C2101F0D2F93F
:100B9000FFFFFF0F78AF0010B0B200109CAF001045
:100BA000F8B504001700FFF7DFFF06684568390055
:100BB0002000FFF7D9FF026843680120AB4201D84B
:100BC00002D00020C0B2F8BDB242FBD8F9E7000065
:100BD00010B5002B02DB0260436010BD024B034ADC
:100BE00003483F2101F0A6F9D4AF00107CB20010F9
:100BF000F0AF001010B582B00400049805991218E7
:100C00004B41002B09DB6846FFF7E2FF009A019B8E
:100C100022606360200002B010BD01225242014BED
:100C2000F1E7C046FFFFFF7F10B5002908D0037B26
:100C30008B4205D300684B005B18033BC01810BD06
:100C4000024B034A0348682101F074F938B00010E0
:100C500058B2001054B0001010B5437B8B4201D144
:100C6000012010BDFFF7E0FF8378002B01D10020A9
:100C7000F7E70120F5E770B50400857B002D01D171
:100C8000280070BD2900FFF7CFFF4378A373002B26
:100C900000D1E3730023837043700370F0E700001A
:100CA000F8B506000C001500FFF7BEFF0700002C8A
:100CB0000DD0002D11D0AC4215D029003000FFF727
:100CC000B3FF84703B78002B13D13D70F8BD0A4B05
:100CD0000A4A0B486F2101F02DF90A4B074A0848D0
:100CE000702101F027F9084B044A0548712101F0F1
:100CF00021F943703D70E9E7A0B0001034B2001054
:100D000054B00010ACB00010B8B0001070B50600C0
:100D10000D001400002914D0002A14D04368806804
:100D20009847002806D0220029003000FFF7B8FFBE
:100D3000280007E02A0021003000FFF7B1FF200063
:100D400000E0100070BD0800FCE7000070B5040072
:100D50000D1E0CD0FFF768FF0023837043700370F3
:100D6000617B2A002000FFF7D1FF607370BD034B49
:100D7000034A0448A52101F0DDF8C046D0B00010B8
:100D800048B2001054B0001070B504000D1E0FD012
:100D9000FFF762FF00280BD1E17B00290ED1A37B76
:100DA000002B03D1E37B002B0DD1A573E57370BD40
:100DB000084B094A0948F62101F0BCF82000FFF76A
:100DC00033FF4570EBE7064B034A0448FB2101F073
:100DD000B1F8C046D4B0001024B2001054B00010D6
:100DE000F8B0001010B5002907D003681B7B8B42B8
:100DF00003D3C0680139401810BD034B034A0448AF
:100E0000412101F097F8C04678AF001010B20010F1
:100E10009CAF001070B505000C00080000F046FC07
:100E20000949200000F086FBFFF748FC074B9C4671
:100E30006044800068602C75D0231B061B786B759E
:100E4000034BA400E55070BD3D0F0010400000347E
:100E5000040F00200A4B1A68EFF3108172B6136872
:100E6000002BFCD0BFF35F8F054B1B68BFF35F8F78
:100E700000221A6081F3108840BF002000217047D3
:100E80001811002010B582B0040000F015FB02001C
:100E90000B006846FFF79CFE009A019B226063608E
:100EA000200002B010BD0000F0B583B00700019231
:100EB0001D000AAB1C780BAB1E78002C0BD0006811
:100EC0002100FFF7C9FE002809D0194B194A1A481A
:100ED000672101F02FF80068FFF7CDFE0400002C19
:100EE00002D1200003B0F0BD21003800FFF73CFE26
:100EF000019B03604560089B8360099BC360386861
:100F00002100FFF723FFA042EBD1387D019A2B008F
:100F100000F058FB051E01D0002E04D00C9B002BC6
:100F2000DFD01D70DDE73868210000F005FDF5E732
:100F30000CB1001064B200109CAF0010F0B5DE469A
:100F400057464E464546E0B58FB00B900021794B91
:100F50008200D458894683E029002000FFF704FE70
:100F6000804602684368921BBB41002B09DD434663
:100F70001A685B680B9800F025FB00239846002652
:100F80008AE0002B01D1002AF1D10021584600F05F
:100F9000C9FC0700A84215D143461A685B6808924D
:100FA000099343469E68DB689846002E10D02900BE
:100FB0002000FFF717FF037899461B021F432761A4
:100FC000002069E05C4B5D4A5D488E2100F0B2FF75
:100FD0005C4B5A4A5A48922100F0ACFF2369002B1F
:100FE00000D177E0BB4219D106980799002342420D
:100FF0008B4100920193089A099B0CA8FFF7FAFD18
:101000000C9A0D9B002104910131039102954146F8
:10101000019100962000FFF747FF16E04A4B474A30
:101020004748A12100F086FF069A079B002B01D1BB
:10103000002A52D120682900FFF7A6FE29002000CF
:10104000FFF7D0FE03780133037000232361626849
:10105000BFF35F8F13608AF310880120002861D0EE
:101060000CA8FFF70FFF0C9E0D9F00220023089293
:1010700009936268EFF3108A72B61368002BFCD0F4
:10108000BFF35F8F23689B465D7B002D00D063E735
:1010900000239846002600206368BFF35F8F00227C
:1010A0001A608AF31088002ED8D04B461F022F43B7
:1010B00041463800B047069007916268EFF3108A06
:1010C00072B61368002BFCD0BFF35F8F079B002B19
:1010D00000DA83E7079B002BA6DD2369002BA9D04C
:1010E000BB4219D10CA8FFF7CDFE0C9A0D9B0698B8
:1010F0000799009001910CA8FFF77CFD0C9A0D9BBD
:10110000002104910131039102954146019100961D
:101110002000FFF7C9FE98E70B4B084A0848A421B6
:1011200000F008FF0FB0F0BCBB46B246A946A0468F
:10113000F0BDC046040F002034B1001094B200107E
:101140009CAF00104CB1001058B1001010B50C4B02
:101150005B68002B04D00B480A21FFF7CDFC10BDC3
:10116000074C094A20682300102100F046FB0320A9
:1011700000F096F903212000FFF74CFEEBE7C04694
:101180008402002018110020A10B001010B5064B9E
:101190005B68002B01D0044810BD044B044A05488D
:1011A0005E2100F0C7FEC0468402002094B100100A
:1011B000F8B100109CAF0010F0B5DE4657464E4621
:1011C0004546E0B58DB0060090461F00169B9A4636
:1011D000179B994618AB1B780793272302AA9446BE
:1011E000634400221A7021E001003000FFF7FAFD8D
:1011F00000783CE00698002B5CD0079B002B59D070
:101200004946D04704000D0003000B4359D0002984
:1012100040DB08A8FFF736FE089A099B0094019569
:1012200008A8FFF7E7FC089B9846099F7268EFF350
:10123000108B72B6136859424B41D9B20691002BFC
:10124000F8D1BFF35F8F273302AA94466344049317
:101250000023039302934B46019353460093424667
:101260003B003000FFF720FE0400051EBCD1736870
:10127000BFF35F8F002119608BF31088002D17D00A
:10128000272302AA944663441B78002BB2D10002A4
:101290002043B0E700236242AB41009201934246F3
:1012A0003B0008A8FFF7A6FC089B9846099FBDE7EE
:1012B000012040420DB0F0BCBB46B246A946A04654
:1012C000F0BD0698F6E7F0B5C64600B584B0050057
:1012D000884616001F000AAB1C78FFF757FF0294E0
:1012E000019700962A004346FFF766FF04B080BCD2
:1012F000B846F0BDF0B5C64600B505000C1E42D09C
:101300004268EFF3108772B61368002BFCD0BFF36E
:101310005F8FE6B22B68984631001800FFF79CFCFF
:1013200000282AD02B69A34213D0240AE4B231004A
:101330002800FFF757FD0378A34211D000206B6807
:10134000BFF35F8F00221A6087F3108880BCB84615
:10135000F0BD0E4B0E4A2C210E48FF3100F0EAFD85
:101360003100404600F0E8FA0028E8D10A4B084A6C
:1013700099210848490000F0DDFD2B69A342DED128
:1013800000232B61DBE70020E0E7C046B8B1001086
:10139000E0B100109CAF0010DCB1001010B50400EB
:1013A000FFF7F4FE2100FFF7A5FF10BD30B583B0B5
:1013B00005000C00EFF30583002B0FD10B4A00232F
:1013C0000093FFF780FF00280BDD20BFFFF7E6FF4B
:1013D00028002100FFF7B4FB03B030BDFFF7B0FBDE
:1013E000FAE728002100FFF7ABFBF5E7550E0010E8
:1013F00010B5002B02DB0260436010BD024B034AB4
:1014000003483F2100F096FDD4AF001070B30010E8
:10141000F0AF001070B5EFF305801038EFF3108CCB
:1014200072B6194B1B68002BFBD0BFF35F8F0122F4
:101430001300834015494B6315490B601549097822
:101440000C00C440224213D0104A546A124A85004C
:10145000AA58944205D3114AAA580E4C99432170B8
:1014600007E00A4A031D9B0099589950002200E0AA
:101470000022BFF35F8F044B002119608CF31088AA
:10148000002A00D0904770BD280100D000400540E0
:101490003C700540361100201C1100200C0E00206D
:1014A00010B50100024A034B1800FFF7DDF810BD2C
:1014B000C8B2001034110020044B5B6A034A906AE2
:1014C0001900536A9942F9D17047C046004005405F
:1014D000084B5B6A01E0074B5B6A8B42FBD301E080
:1014E000044B5B6A8B4203D1024B9B6A8342F7D366
:1014F0007047C04600400540F0B583B004000D00C1
:10150000FFF7DAFF06000F0022002B0092197B4143
:10151000994202D804D1904202D901225242D317F3
:101520006846FFF765FF00980199FFF7D1FF03B008
:10153000F0BD000070B504000E00EFF3108572B628
:101540001B4B1B68002BFBD0BFF35F8F002E1CD002
:101550002000FFF755F9174B83420BD019002000EC
:10156000FFF756F901212000FFF742F90123A340BC
:10157000114A1360114BA400E650BFF35F8F0C4B70
:1015800000221A6085F3108870BD0C4BA200002168
:10159000D1500122A2400A490B7893430B700549B0
:1015A0002000FFF75FF900212000FFF721F9E4E7B1
:1015B000280100D015140010386005400C0E0020E2
:1015C00036110020F0B5DE4600B584B004001500E9
:1015D00001921E000293FFF76FFF03958E4202D81F
:1015E0004ED185424CD9EFF3108B72B6274B1B6856
:1015F000002BFBD0BFF35F8F254A17780125A5404C
:10160000EBB23B431370234B5D63221D92000199A3
:10161000D150214AA100029888501B6A2B4212D156
:101620001C4B1B6C2B4208D00020BFF35F8F174B65
:1016300000221A608BF3108823E0184B184A1948CF
:10164000C52100F077FCFFF737FF8E4214D802D196
:10165000039B834210D80E4B1B78BB420ED00D4B20
:101660001D625D631F222240012393400E4A1360D6
:10167000074B1F700120D8E70020D6E70120D4E7F0
:10168000012004B080BCBB46F0BDC046280100D09C
:1016900036110020004005401C110020ECB2001063
:1016A00054B3001010B3001080E200E0EFF3108C90
:1016B00072B60B4B1B68002BFBD0BFF35F8F01236F
:1016C0008340084A136208490A789A430A70BFF3B4
:1016D0005F8F034B00221A608CF310887047C0465E
:1016E000280100D0004005403611002010B5002927
:1016F00008D0037B8B4205D300684B005B18033B8B
:10170000C01810BD024B034A0348682100F012FCC8
:1017100038B0001074B4001054B00010F8B50600D2
:101720000C001500FFF7E2FF0700002C0DD0002D84
:1017300011D0AC4215D029003000FFF7D7FF8470DC
:101740003B78002B13D13D70F8BD0A4B0A4A0B4879
:101750006F2100F0EFFB0A4B074A0848702100F0A8
:10176000E9FB084B044A0548712100F0E3FB437094
:101770003D70E9E7A0B0001060B4001054B0001054
:10178000ACB00010B8B0001070B506000D00140029
:10179000002914D0002A14D0436880689847002894
:1017A00006D0220029003000FFF7B8FF280007E02C
:1017B0002A0021003000FFF7B1FF200000E01000F8
:1017C00070BD0800FCE770B50500002343730133CA
:1017D0008373037BC373012406E021002800FFF715
:1017E00085FF0134E4B24470297BA142F5D828007A
:1017F000FFF77CFF0023437070BD10B5017342609A
:101800008360FFF7E0FF10BDF0B5C64600B50500E8
:101810000C1E03D1200080BCB846F0BDFFF766FF68
:101820004678002EF6D031002800FFF75FFF47789A
:1018300000239846437021002800FFF757FF4346D6
:101840004370320021002800FFF79EFF040039009A
:101850002800FFF7D9FF020021002800FFF794FFBE
:101860000400D7E7F0B5C64600B504000D00170028
:10187000002927D0FFF73AFF4378002B28D183783F
:10188000002B2BD101782000FFF7BEFF0600804619
:10189000002F0AD0E17B002926D1A37B002B03D1A6
:1018A000E37B002B25D1A573E5734346002B26D19E
:1018B00029002000FFF71AFF00234370300080BC8E
:1018C000B846F0BD114B124A1248382100F032FBE5
:1018D000114B0F4A0F483A2100F02CFB0F4B0C4ADA
:1018E0000C483B2100F026FB2000FFF7FFFE45706F
:1018F000D3E70B4B064A0748422100F01BFB31009F
:101900002000FFF7F3FE00238370D1E788B30010B7
:101910004CB4001090B30010C8B30010F0B3001026
:10192000F8B0001070B504000A00457B2900FFF7ED
:1019300099FF6073280070BD70B506000C1E40D082
:10194000437B8B4207D0FFF7D1FE05008178002949
:1019500006D1002036E00121FFF7E4FF012031E04D
:101960003000FFF7C3FE0178A1420DD03000FFF731
:10197000BDFE4178A1420AD00029F7D1124B134A8B
:1019800013486B3100F0D6FA6B78037001E06B7886
:1019900043700023AB706B70012221003000FFF711
:1019A00061FF0200717B814205D03000FFF7ECFE41
:1019B0007073012006E0074B044A0548712100F0CE
:1019C000B9FA002070BDC04640AE001034B400101B
:1019D00090B3001014B4001070B5046BE30701D489
:1019E000200070BD02003032C0239B0113430A4A1D
:1019F0001A60456A836AAD01ED18AD02062000F059
:101A0000C5F9064901F092FC0100280001F08EFCA6
:101A10000021FFF771FDE3E7010300004E0E000017
:101A200070B504000E001500FFF7D6FF22002C321F
:101A3000E36A5E40354080235B0113431D602063F1
:101A400070BD000070B505000C00062000F09EF986
:101A5000C000210001F06AFCC60908D00E4B9E426E
:101A600016D87F230340013334005E0800E00124D0
:101A70006C62AE62002200212800FFF7D1FF062031
:101A800000F084F98000A101891901F04FFC70BDBC
:101A90000026024CECE7C046FEFF0000FFFF0000FE
:101AA00010B505394901013AD2001143002B09D084
:101AB00002220A43012B07D0002111436E22FFF7B7
:101AC000AFFF10BD0022F4E70421F6E710B50029AE
:101AD00000D010211022FFF7A3FF10BD002909D06C
:101AE0000A22064B9C46604443425841044B400046
:101AF000C252704780225200F3E7C0460080FCBF0C
:101B00002C11002070B505000C00062000F03EF9F5
:101B1000061E27D0164B9D4226D08022D203154B9D
:101B20001A60154B1A60154B9B6811009943FAD146
:101B300000212800FFF7D2FF21002800FFF782FFD5
:101B400006000023012208212800FFF7A9FF2A0030
:101B50002C3280239B01134310221A60084B2B6305
:101B60000323AB64300070BD80221204D7E7C04667
:101B70000080034000E0004000F0004000C0004052
:101B800001030000F8B5DE4657464E464546E0B52F
:101B900006000F0015000A9A934250D31A0E92467F
:101BA0001B0298460A9A00234046514601F0FCFB6E
:101BB00081467400A419A4002F4B9C4664446368BA
:101BC000834200D26060331FDBB29B46012B3CD9BD
:101BD000C0239B012343802212011A60274BB200CD
:101BE000D158002907D0586901F0A0FB013043000B
:101BF0001B18033BFDD26D0123685D40E0222A40A3
:101C000080235B0123431A605A46012A28D9802386
:101C10009B012343802212011A604B4663604A46AF
:101C200000234046514601F0BFFB144BB6009851CB
:101C30000120F0BCBB46B246A946A046F8BD104BF9
:101C4000104A1148332100F075F9012FC0D1C0238B
:101C50009B01234303221A60A368DB07FCD5CAE774
:101C60002168794003220A401A60A3680125BD401B
:101C70001D42FAD0CBE7C04600800040280E00206D
:101C800080B40010D8B4001094B4001030B583B004
:101C90000C2000F011F9FEF7C7FC00280DD000233E
:101CA00004E02E4A99002E4888500133092BF8D9B8
:101CB0002A4B2C4A5A6203B030BD2B4B00229A6744
:101CC00000F002F9294B01221A60274B5B6C012BB3
:101CD000FBD1274B03221A60234B9B6B012BFBD1BB
:101CE000013300930433234A0121234800F054F8C0
:101CF00005230093214A0121214800F04DF8214B92
:101D00000093002202210420FFF73CFF1E4D0095A6
:101D10002B00002201210520FFF734FF104C009416
:101D20002300002200210720FFF72CFF009423004E
:101D3000002200210820FFF725FF0A4B0093230013
:101D4000002200210920FFF71DFF00952B00002233
:101D500000210620FFF716FFADE7C046280E002041
:101D6000006CDC021BB70000008000403CB000406B
:101D700030B00040002F685900800240008C864738
:101D800000C00240001BB70040597307014B8000A0
:101D9000C0587047280E0020F0B5C64600B50400B4
:101DA0000E0017001D00374801F0C0FA8046364B80
:101DB000FA18364B9A4239D80100380001F0B6FAC9
:101DC0000200103A98235B009A4235D86B1E062B0E
:101DD00038D8069B013B062B34D83F09474537D3FB
:101DE0002D04069B1B031D432368002B36DB284B69
:101DF0009C4244D080235B01264A1360264A13602C
:101E0000264A926819009143FAD12660A060221DEB
:101E1000C0239B01134321221A602268002AFCDAA6
:101E2000E56008221A6080BCB846F0BD1C4B1D4A14
:101E30001D48112100F07EF81C4B1A4A1A4819213E
:101E400000F078F81A4B174A17481C2100F072F876
:101E5000184B144A1448232100F06CF822683F23E1
:101E60001340B342C3D1A3681B051B0D8342BED1EF
:101E7000E368EE22D2021340AB42B8D1D3E780230D
:101E80009B01B9E7001BB70080E84BD380F8A9326B
:101E900000C0024000E0004000F0004000C00040F0
:101EA000E8B400100CB6001048B5001088B500105A
:101EB000A4B50010F0B5001080239B000343014A35
:101EC000D362704700800540064BAA2212011A60B7
:101ED0002F22DA60044B054A1A60024B5B68002B24
:101EE000FBDA7047004002400060024000B0FA0098
:101EF00000BEFDE703000A4A1268002A08D0084A1B
:101F00001068C318074A9A4206D3054A13607047FF
:101F1000034A05491160F2E701204042F7E7C04655
:101F2000980E0020000004203811002010B5FFF7A3
:101F3000DFFF000030B583B00D001900002A0BD080
:101F4000074B084C019200932B000200200002F086
:101F5000F5FB0120FFF7CCFF034B1A00F1E7C04669
:101F600018B6001028B60010FCAC001070B52B4B52
:101F70002B4A1A602B4B2C4A1A602C4B9A682A4B1E
:101F80009343FAD12A4C01E008CC9847294B9C4254
:101F9000FAD3FFF77BFE234B274A1A60234B9B683B
:101FA000DB43DB01FAD1254B40229A675A671A6757
:101FB000DA66234C09E0234B234A24488721FFF7A4
:101FC000B9FF2000FEF7A0FD0834214B9C4209D246
:101FD0002368002BF5D0012BEDD12000FEF7A1FDE9
:101FE0000834F2E71B4DA9681B4CC022200002F008
:101FF000A5F9AC60EFF30583002B00D000BEFEF71F
:102000004DFBFEF76BFDFFF7A1F8144C01E008CC87
:102010009847134B9C42FAD370BDC04600E0004085
:10202000BFCDFBFE00F00040FE7F3C0000C0004042
:10203000A00C0020B00C0020FFFFFF0100F00140C9
:10204000980C002058B60010D0B6001078B60010DA
:10205000A00C002000ED00E000000020B00C0020EB
:10206000B40C00200FB400B583B0084802F036FB72
:10207000049B002B07D005A90191180002F03EFB3C
:10208000034802F02BFB0120FFF732FFBCB6001023
:10209000CCB600109A4200D288547047704710B5F1
:1020A000002802D00B684968984710BD0100002045
:1020B00007E083001B185B00501C08601078C018F4
:1020C00030380A681378303BDBB2092BF1D97047FE
:1020D000F0B5DE4657464E464546E0B583B09346DA
:1020E0001F000C9B9A460D9C0E9B99460F9B9B07CD
:1020F00003D0B8460F00060022E00192A3468846AE
:102100004E46B9460700B44207D2551C4B464146DD
:102110002020B84701342A00F5E73D004F465C46D1
:10212000019B9B46B1464646B84637002E0007E065
:10213000013C551C5346185D43463900B0472A0000
:10214000002CF5D135003E0047460F9B9B0707D476
:10215000100003B0F0BCBB46B246A946A046F0BD95
:10216000B0464E46B9462F005D46531BB342EFD2F0
:10217000541C4B4641462020B8472200F5E7F0B5F5
:10218000CE46474680B585B0944698460C9D0D9C3A
:102190000EAB1B789946109A119B129EB7071CD460
:1021A000002B0CD0F7070AD54F46002F02D10C3771
:1021B000374204D0013B02E030272F5501349442CE
:1021C00001D21F2CF8D9F70707D59C4205D21F2C46
:1021D00003D830272F550134F5E7F70612D57705D8
:1021E00005D4002C03D0944221D09C421FD00F9ADA
:1021F000102A32D00F9A022A37D01F2C0AD8302248
:102200002A5501341F2C05D84A46002A33D02D22E6
:102210002A55013403960293019400954346624681
:10222000FFF756FF05B0C0BCB946B046F0BD621E10
:10223000012C10D00F9F102F0BD014000F9A102AD2
:10224000D8D1B206D6D51F2CD4D858222A5501345D
:10225000D3E7023CCBE71400C9E7B206EED41F2C4B
:10226000ECD878222A550134C7E71F2CD2D8603227
:102270002A550134C1E7720703D52B222A550134B0
:10228000C8E73207C6D520222A550134C2E7F0B587
:10229000DE4657464E464546E0B593B081468A46EF
:1022A000089209931CAB10CB1B789B461E9D219B6B
:1022B0009846002C03D1102342469A43904680232F
:1022C000DB0046461E4042461A4212D0002C22D065
:1022D00000260EE03033D9B2771C0AAB995529009D
:1022E000200001F023F8AC4216D31F2F14D83E0073
:1022F00004002900200001F019F8CBB2092BE9D91C
:102300004246920605D54121C918C9B20A39C9B257
:10231000E2E76121F8E7270043460693209B0593F7
:102320001F9B049303955B46029301970AAB0093AE
:10233000099B089A51464846FFF721FF13B0F0BCAD
:10234000BB46B246A946A046F0BDF0B5DE465746AC
:102350004E464546E0B597B00A900B910C929A46CE
:10236000209B9946219F22AA13789B46249B099380
:10237000259C289B98464A463A4302D11032934303
:1023800098468022D20045461540434613420AD063
:102390004A463A4341D000252E0053460D934D4600
:1023A000099B9A461BE02E0053460D934D46099B10
:1023B0009A4614E03033DAB2731C99460EAB9A5544
:1023C000524623002800390000F0EEFFBC4226D818
:1023D00019D04B461F2B1CD84E4605000F00524605
:1023E00023002800390000F0DFFFD3B2092BE1D928
:1023F0004246920605D54122D218D2B20A3AD2B24A
:10240000DAE76122F8E7AA45E3D94E460D9B9A46E2
:1024100008E04E460D9B9A4604E0002602E04E4638
:102420000D9B9A4643460693279B0593269B049350
:10243000099B03935B46029301960EAB00935346B0
:102440000C9A0B990A98FFF79AFE17B0F0BCBB469E
:10245000B246A946A046F0BDF0B5DE4657464E4608
:102460004546E0B591B0804689460C929A461A9C42
:102470001B9D22002B002000290001F028FA0028D3
:1024800000D0ECE001225242D44B2000290001F0A0
:1024900019FA002800D0E2E001225242D04B20007D
:1024A000290001F0F9F9002800D0D8E0002200232B
:1024B0002000290001F0F0F9002800D0E4E00694A3
:1024C00007958023DB001E9A1A400D921E9A1A422D
:1024D00001D106231C930698079902000B0008926D
:1024E000099303000A00024300D1D9E0080D40051A
:1024F000400DBC4EB44660440A03120B1E00BA4B9A
:1025000013431F0001F0F6F9B84AB94B01F079F90D
:10251000B84AB94B01F04EF9089009910022B74B27
:102520003000390001F03DF9B54AB64B01F069F9C8
:1025300002000B000898099901F03CF901F0F2F94A
:10254000834601F0D7F906000F00AF4AAF4B01F008
:1025500058F90022AE4B01F02DF901F0E3F9089093
:10256000AC4AAD4B3000390001F04BF906000F00CA
:10257000089801F0BFF9A94AA94B01F042F90200FD
:102580000B003000390001F00CF906000F000200CA
:102590000B0001F036F90A900B91089BA14A944672
:1025A000634400210022089109921B05099300232E
:1025B000089332003B003000390001F0FBF80E9028
:1025C0000F9132003B0000208021C90501F0E9F89D
:1025D00006000F000022944B0A980B9901F0F3F8C3
:1025E0000022924B01F0E6F802000B000A980B99CA
:1025F00001F0E9F800228E4B01F0DCF802000B003C
:102600000A980B9901F0DFF802000B003000390046
:1026100001F0D0F802000B000E980F9901F0D3F8EA
:102620000022714B01F0C6F8089A099B01F0E9F805
:1026300006000F0008960997069A079B01F042F9D9
:1026400000282FD001235B429C46E3440022774BB5
:102650003000390001F0B7F80890099122E01E9B84
:1026600004931D9B03931C9B029300940195534676
:102670000C9A4946404600F0FFF811B0F0BCBB464A
:10268000B246A946A046F0BD00210022069107925D
:10269000069480231B069C46AC446346079310E7D0
:1026A00000239B465B466333C62B20D804261E9B23
:1026B0001B0528D5089A099B190011430FD05D4AC4
:1026C0005D4B0698079901F0F5F800287AD00022B2
:1026D0005A4B0698079901F0DFF8002872D01C9B2E
:1026E0005B4506DD5A469B1A013B1C9303E0052619
:1026F000DDE700231C938023DB001E9A1A431E9201
:10270000002600239B461D9B9E4265D29F1B0223F1
:102710001E9A1A400A921E9A134202D0002E00D02E
:1027200000275B46002B07D0089A099B069807995B
:1027300001F049F8069007910022002320002900AB
:1027400001F0AAF8002800D07CE03D4B1E9A13400F
:10275000049303971C9B0293069B079C0093019490
:1027600053460C9A4946404600F086F8002E00D1A8
:1027700083E71E9B9B0671D54525441C53460200EA
:1027800049462800C0475A46D317D2185A40052355
:102790000593013E0496002303930A3302935B469C
:1027A000DB0F019300925346220049464046FFF753
:1027B0006EFD0A9B002B00D15FE7020047460C9E8E
:1027C0001D9D53E01C9B002B9DD00D9B002B9AD090
:1027D0001C9B013B1C9396E7002798E7FFFFEF7FC8
:1027E000FFFFEFFF01FCFFFF0000F03FFB799F5070
:1027F0001344D33FB3C8608B288AC63F0000F83F1C
:1028000061436F63A787D23F71A379094F930A4051
:102810000000E03F1655B5BBB16B0240EF39FAFE40
:10282000422EE63FFF03000000002C400000244041
:10283000000018402D431CEBE2361A3F80842E41E5
:10284000FFF7FFFF069C079D22002900802000065D
:10285000844661440B000692079376E765258CE772
:10286000541C534649462020B8472200931BAB42D4
:10287000F6D3100001E7C046F0B5DE4657464E4697
:102880004546E0B595B00690079193469946209F3E
:102890001E9A1F9B1000190001F019F8002831D171
:1028A00001225242BF4B1E981F9900F0F5FF0028ED
:1028B00037D101225242BC4B1E981F9901F002F8F9
:1028C00000283DD10022B94B1E981F9900F0FAFF55
:1028D000002850D10022B64B1E981F9900F0DCFF53
:1028E000002848D1002200231E981F9900F0D4FF31
:1028F000002850D100239846229B5B0500D4B6E007
:10290000002458E0229B0393219B0293032301930D
:10291000A84B00934B465A4607990698FFF7D8FBF9
:102920000EE1229B0393219B029304230193A24B6C
:1029300000934B465A4607990698FFF7C9FBFFE0FC
:102940000423229A1A4022990B4210D09B4B002A52
:102950000FD00422229903912199029101920093B0
:102960004B465A4607990698FFF7B2FBE8E0944BAE
:10297000EDE70322EEE7229B0493219B039302974A
:102980001E9B1F9C009301944B465A46079906983C
:10299000FFF762FDD4E01E9A1F9B0020002100F08B
:1029A00000FF1E901F9101239846A5E70CAB302233
:1029B0001A55013F01341F2C01D8092FF6D81E9853
:1029C0001F9900F0AFFF050000F094FF02000B001C
:1029D0001E981F9900F0E5FE7A4BFA009B181A68C2
:1029E0005B680A920B9300F00CFF0890099100F0CD
:1029F000BDFF060000F07AFF02000B00089809995D
:102A000000F0CFFE0890099100226F4B00F05AFFB2
:102A100000282ED00136300000F068FF02000B00C5
:102A20000A980B9900F03EFF002801D001350026DE
:102A3000002F2CD1280000F05DFF02000B001E9833
:102A40001F9900F0AEFE06000F0000225E4B00F062
:102A500023FF002846D100225B4B3000390000F0F4
:102A600031FF00283ED1EB073CD501353AE006277F
:102A700046E70022544B0898099900F00DFF002802
:102A8000D6D1002E01D0F307D2D50136D0E7AA4621
:102A90001F2C11D8013F0A21300000F047FC651CB3
:102AA00030310CAB19550A21300000F03FFC092EE3
:102AB0000ED906002C00EBE755461F2C0CD87B1EC8
:102AC000002F09D00CAA302111551F000134F4E762
:102AD0002B0055461C00F0E71F2C03D80CAB2E2210
:102AE0001A5501341F2C10D80A21280000F0F6FBDB
:102AF000661C30310CAB19550A21280000F0EEFBA2
:102B0000051E01D03400EDE734000323229A134060
:102B1000012B1CD01F2C06D84346002B32D00CAB07
:102B20002D221A550134229B0393219B0293019479
:102B30000CAB00934B465A4607990698FFF7C8FA24
:102B400015B0F0BCBB46B246A946A046F0BD219BDD
:102B5000002B13D04346002B02D10C3313420FD06D
:102B6000219B013B2193190003E00CAB30221A5545
:102B700001348C42CED21F2CF7D9CBE72199F8E74C
:102B80002199F6E7229B5B0704D50CAB2B221A5543
:102B90000134C8E7229B1B07C5D50CAB20221A5570
:102BA0000134C0E7FFFFEFFFFFFFEF7F65CDCD41B1
:102BB00065CDCDC1ECB60010F0B60010E0B6001047
:102BC000E8B6001098B800100000E03FF0B5DE460F
:102BD00057464E464546E0B593B0824688469346F2
:102BE0001193002900D106E300255646119B187861
:102BF000002800D102E3252809D06C1C5B462A007E
:102C00004146B047119B013311932500EEE7013394
:102C10001193002720E001231F4301321192012468
:102C200018E002231F4301321192012412E0042311
:102C30001F430132119201240CE008231F4301328B
:102C40001192012406E010231F4301321192012446
:102C500000E00024002C09D0119A1378203BD9B24F
:102C60001029F6D88B00C449CB589F46119B1A787F
:102C70001300303BDBB2092B10D92A2A13D00B9456
:102C8000119B1A782E2A1ED0119A1378683BD9B25C
:102C9000122959D88B00B949CB589F4611A8FFF784
:102CA00005FA0B90ECE71C9B1A1D1C921B68002B6D
:102CB00004DB0B93119B01331193E1E702221743CD
:102CC0005B420B93F6E78022D20017435A1C119205
:102CD0005A781300303BDBB2092B0BD92A2AD3D107
:102CE0001C9B1A1D1C921C68002C08DB119B0133D5
:102CF0001193C9E711A8FFF7D9F90400C4E700242C
:102D0000F4E780235B003B43511C119151786C29FF
:102D100001D01F0018E0C0239B001F430232119214
:102D200012E080233B43511C11915178682901D056
:102D30001F0009E0C0231F430232119204E08023E8
:102D40005B001F4301321192119B1878672816D837
:102D5000252826D30300253BDAB2422A21D8930046
:102D6000874AD3589F4680239B001F43013211920C
:102D7000EAE780235B001F4301321192E4E77828E1
:102D80000FD869280DD30200693AD2B201239340CB
:102D90007C4A13420FD11A0600D507E25B0500D525
:102DA00094E16C1C5B462A004146B047119B0133FD
:102DB000119325001AE778280AD062283AD06F28A4
:102DC0003BD058283CD010239F43063B9C4601E053
:102DD00010239C46582836D0692803D0642801D097
:102DE0000C2297437A0501D50122974369282DD0FB
:102DF00064282BD0BA0500D5A2E0FA0500D5C3E0BF
:102E00007A0600D4D5E01C9A111D1C911168FF228E
:102E10000A4005970B9B0493039463460293002397
:102E2000019300925B462A0041463000FFF72FFADB
:102E300005002AE002239C46CCE708239C46C9E70C
:102E400010239C46C6E720221743C5E7BA0520D4C5
:102E5000FA0550D47A0666D51C9A111D1C9111688A
:102E6000FF220A40D0171118414005970B9B04938D
:102E7000039463460293D20F019200915B462A00AD
:102E800041463000FFF703FA0500119B013311930F
:102E9000ACE61C9A073207218A43110008311C91C5
:102EA000116853689946DB170C930D930C9A0D9B90
:102EB000100048400E904A4653400F930E980F99C9
:102EC0000C9A0D9B801A99410E900F9108970B9BBD
:102ED0000793069463460493002305934B46DA0F49
:102EE0000292009001915B462A0041463000FFF7B4
:102EF0002CFA0500C9E71C9A111D1C911268D01705
:102F00001118414005970B9B049303946346029369
:102F1000D20F019200915B462A0041463000FFF734
:102F2000B6F90500B1E73A0605D51C9A111D1C91AA
:102F30000023D25E96E71C9A111D1C91126891E73E
:102F40001C9A073207218A43110008311C91089707
:102F50000B9B079306946346049300230593029307
:102F600053681268009201935B462A004146300084
:102F7000FFF7EBF9050088E7F8B600103CB7001042
:102F800088B70010419000001C9A111D1C910597F4
:102F90000B9B0493039463460293002301931368ED
:102FA00000935B462A0041463000FFF770F90500A8
:102FB0006BE73A0606D51C9A111D1C911268120483
:102FC000120C26E71C9A111D1C91126821E7462855
:102FD00019D01C9B0733072293431A0008321C9216
:102FE00004970B9A039202941A685B68009201930B
:102FF0005B462A0041463000FFF73EFC0500119B6E
:1030000001331193F2E520231F43E2E7672801D043
:10301000472802D180231B011F43452801D04728A0
:1030200001D120231F431C9B0733072293431A001F
:1030300008321C9204970B9A039202941A685B68F8
:10304000009201935B462A0041463000FFF704FAE4
:103050000500119B01331193C8E502231A003A4081
:1030600091463B421DD001241C9B1A1D1C926F1CD3
:1030700018785B462A004146B0474B46002B14D1D6
:10308000119B013311933D00B0E5571C5B4641464F
:103090002020B04723003A005C1C9D42F5D8150063
:1030A000E2E701232A000B9DF6E73A00B1460B9EAA
:1030B00006E0571C5B4641462020C8472C003A00DA
:1030C000651CA642F5D817004E46D9E71C9B1A1D71
:1030D0001C921B689A46002C25D10122524253466D
:1030E00001E001330A001978002902D0511E002A9C
:1030F000F7D152469B1A8022D200390011408946EE
:10310000174202D0A34200D9230002221100394005
:1031100010913A4209D02A00250057469A463300BA
:103120004E46994621E02200D9E72A004546A046AE
:1031300006E0541C5B4629002020B0473B002200DB
:103140005F1C0B999942F4D84446A8463B002500E1
:1031500057469A4633004E46994606E01D00013711
:10316000541C5B464146C84722003878002804D0EA
:10317000002EF4D06B1E002DF0D1150053464E46A4
:10318000109A002A03D1119B013311932EE50B9F56
:103190002A0006E0551C5B4641462020B04723002C
:1031A0002A005C1C9F42F5D81500ECE721233B4325
:1031B0001C9A111D1C911268059308230493039413
:1031C000083302930023019300925B462A00414694
:1031D0003000FFF75CF80500119B0133119305E502
:1031E0006C1C5B462A0041462520B047119B0133E9
:1031F00011932500FAE40B4B9A46F5E4B2465D457F
:103200000DD35B465A1E5B4641460020D04728003E
:1032100013B0F0BCBB46B246A946A046F0BD2A009A
:10322000F1E7C0469D2000100EB430B584B0010017
:1032300007AC08CC03940122054D009452422800AB
:10324000FFF7C4FC04B030BC08BC03B01847C0464C
:103250009520001000B585B002900391012104482B
:10326000009313004A4202A9FFF7B0FC05B000BD6D
:103270009F20001001480421014B1847B002002094
:10328000A532001010B5010018231B8814221088E5
:10329000984710BD10B5010018231B88162210880E
:1032A000984710BDF0B5C64600B507000E000025D2
:1032B0000123984600E00135B5420AD2AC003C1922
:1032C0002068FFF7DFFF20600028F4D10023984634
:1032D000F1E7404680BCB846F0BD0000124A936F4B
:1032E0009B0815D29066D166002905D0FFE7FFE75D
:1032F000FFE7516F106F704704B580210906C217B0
:103300005140002800D0C84307F0DAFC002104BD7A
:10331000F0B5146E556E576F166FFFF7E3FF146626
:10332000556657671667F0BD000000D0114A936FCD
:103330009B0813D210665166002905D0FFE7FFE70E
:10334000FFE7516F106F704704B5002801D00020CF
:10335000C04307F0B5FC002104BDC046F0B5146EB3
:10336000556E576F166FFFF7E5FF14665566576782
:103370001667F0BD000000D094464A4A926F92084A
:10338000624601D228E0C046F0B5464E346E756EF6
:10339000776F366F00F020F89446424A14665566FF
:1033A000576716676246F0BD94463E4A926F920890
:1033B000624601D254E0C046F0B53A4E346E756EA6
:1033C000776F366F00F04CF89446364A14665566AF
:1033D000576716676246F0BD002B24DB11D0002929
:1033E0003EDA00B5C943404200D1013100F038F85F
:1033F000C943404200D10131DB43524200D1013385
:1034000000BD002AEBD1002801D1002905D0002001
:10341000C90FC90701D1C043410800B507F048FCF6
:103420000022002300BD00B500290ADBDB43524225
:1034300000D1013300F014F8C943404200D10131FA
:1034400000BDC943404200D10131DB43524200D1AB
:10345000013300F005F8DB43524200D1013300BDD7
:10346000002923D1002B18D1002A0CD0BC460D4FC7
:1034700038667A6600210023FFE7FFE7FFE77A6FEF
:10348000386F67467047002801D00748010000B533
:1034900007F00EFC0022002300BD02000B000020FC
:1034A00000217047000000D0FFFFFFFF002B00D07D
:1034B000BFE0130C28D1002AE7D080B4114F396641
:1034C0007A66FFE7FFE730B4040C7B6F396F1B04AB
:1034D00023433B667A66FFE7FFE7FFE7C04684B217
:1034E0007B6F3D6F1B0423433B667A66FFE7FFE774
:1034F000C04600232C042D0C7A6F386F00196941E7
:10350000B0BC7047000000D0F0B594460025140E02
:1035100001D112020835140F01D112010435940FA4
:1035200001D192000235D40F01D152000135D40BE4
:103530000134254F7C66254C3C660E0C93B2FFE7A8
:10354000FFE7FFE73C6F6643360C7703BE467343E5
:10355000DF0B5B04C01AB941130C7343DB18C91AA3
:10356000CE086643360CB64493B273431F0F1B015B
:10357000C01AB941130C73431F0B1B05C01AB94184
:10358000860D8F023E436643360C092D24DB520A1A
:103590007243801A7703460A6643360C16235B1B78
:1035A000DE40DF40BF1964466643821B7046043527
:1035B00006330100D940A840C01900D30131A2420E
:1035C00006D20023F0BD0000000000D0FFFFFFFF87
:1035D000121B0130F3D3F1E709277F1BFE4064463D
:1035E000A2B27243801A00D20139220C7243130C2A
:1035F0001204821A99410B007046043513370100FA
:10360000F940A840801900D30131002B02D1A24219
:103610000AD2F0BD013000D30131121BFAD2013BB6
:10362000F8D1A24200D2F0BD013000D30131121B0B
:10363000F7E7F0B51C0C00D080E00CB400251C0AA4
:1036400004D11B02160E3343120208351C0B04D1A1
:103650001B01160F3343120104359C0B04D19B0050
:10366000960F334392000235DC0B02D192185B4176
:1036700001351C00971864410134464F7C66464C66
:103680003C660E0CFFE7FFE7FFE7C0463C6F664372
:10369000360C7703BE4697B27743C01B00D2013980
:1036A000C01B00D201399FB27743C91BC91B170C3D
:1036B00077437E04FF0B801BB941CE086643360C6E
:1036C0000C2D33DBB644120B1F053A431B0B97B28C
:1036D0007743C01B00D201399FB27743C91B170C37
:1036E00077433E043F0C801BB941860D8F023E4359
:1036F000664329277F1BFE400C3D7746AF40BF192C
:1037000030BCA2B2ABB272437343801A9941220C0F
:103710007243130C1204801A994102000B00013706
:10372000001BA941F9D2781E0021F0BD0C277F1B98
:10373000FE4077467F0BAF40FF19E0E700245D1C99
:1037400007D0144F7D663966FFE7FFE7FFE7FFE725
:103750003C6F95B29EB265436643401BB141150C68
:103760001E0C6543664336042F0C3E432D04401B5C
:10377000B141994204D202000B0020000021F0BDAB
:1037800001D19042F7D3801A994101349942F2D382
:10379000F6E70000000000D0FFFFFFFF4840414077
:1037A000484018B41B4B5B68FC46019308BD04DF1E
:1037B000133B001018B4174B1B68FC46019308BD5F
:1037C00000DF1D3B00109446134A926F920809D205
:1037D000624618B40F4BDB68FC46019308BD0CDF52
:1037E000D53D00100C4AF0B5146E556E576F166F2C
:1037F0006246FFF7EEFF084A14665566576716677C
:10380000F0BD18B4034B9B68FC46019308BD08DF6C
:10381000793C0010140F0020000000D0FFB550408C
:103820004240504059404B40594000E0FFB5154FD1
:103830004C00640D03D0BC4204D10C0314D800200A
:10384000090D09055C00640D03D0BC4204D11C03C2
:103850000AD800221B0D1B0501264B4009D44B4002
:1038600003D58B4200D18242FFBD9942FCD19042E8
:10387000FFBD0B43DB1803431343F5D0C94349187D
:10388000FFBD0000FF07000000B5FFF7CFFF01D02C
:10389000002000BD012000BD00B5FFF7C7FF80413B
:1038A00000BDC04600B5FFF7C1FF01D9002000BD33
:1038B000012000BD00B5FFF7B1FF01D9002000BD18
:1038C000012000BD00B5FFF7A9FF804100BD012028
:1038D00040054A00121804D85A00121801D80020D6
:1038E0007047012070470020704700000021002829
:1038F00005D17047C1174840401AFAD0C90713B51F
:10390000064B1B6898470CBC441CA2401005120BC8
:103910000349091B09051943114310BD1410002068
:103920001F04000010B54C00620D8023D218DB008C
:10393000D21A5B057E2A10DD9E3A13DACC170903F2
:10394000490819435242D140640001341532202AFB
:1039500005DAD0400843604310BD002010BD084682
:10396000604310BDC80FC018013810BD18B4044B17
:103970005B6AFC46019308BD24DF853F0010000010
:10398000140F002018B4044BDB6DFC46019308BDF6
:103990005CDF914000100000140F0020C94211D3D9
:1039A00000B549004908002200F018F8002904D4A5
:1039B000002240428A41114600BD802109060020B4
:1039C00000BD000018B4044BDB6EFC46019308BD3B
:1039D0006CDF933F00100000140F002018B4044B5C
:1039E0009B6FFC46019308BD78DFAF3F00100000DD
:1039F000140F002018B4044BDB6FFC46019308BD84
:103A00007CDF1D4000100000140F002070B5132350
:103A10001C78012C12D0012C12DC214B214A93641A
:103A20002148FFF72FFC214B186070BD1C491D4A2F
:103A30009800815001331F2BF8D9ECE70023FAE7F7
:103A40001B48FFF727FC05001A48FFF723FC023844
:103A500003789B007F2B09DD12488022290000F0AB
:103A60006DFC022C08D0022CDADCD6E7124B134A8C
:103A700013483221FEF75EFA124B1A88B5231B0257
:103A80009A4209D1104B1A88104B9A4204D1104B1C
:103A90001A88104B9A42E6D00020FEF7E3FAC0469F
:103AA000D93A0010140F00204C33000014100020ED
:103AB0005344000053460000E8B8001084B90010D9
:103AC0003CB9001054380000D838000049460000C6
:103AD0009C3800005946000007B56046002800D118
:103AE00000BE01880A0A0230DF2AFAD1C9B2820870
:103AF00004D3028840880004104300E00068024AB2
:103B00005050039007BD0000140F00200FB403BCF9
:103B10000CBCF0B50124E407634000E0F0B50C0DE7
:103B2000CF0F661E3605891B640503D3C943404287
:103B300000D30131640D03D0661CF60A07D0E41BE4
:103B400000207F00791C89078912803C24031D0D09
:103B5000DF0F6E1E36059B1B6D0503D3DB43524200
:103B600000D301336D0D03D06E1CF60A07D0ED1B98
:103B700000227F007B1C9B079B12803D2D032F1B87
:103B8000661B58D4A446202E46DA20371400BC40C9
:103B90001D00BD40F24033412A4380185941CB0FEC
:103BA00005D0C943C043002264425041514162469E
:103BB0004D0D28D10D0D07D100281FD024194041EB
:103BC0004941013A0D0DF9D0640006D3013000D30C
:103BD0000131002C01D140084000013A0BD4941C63
:103BE000E40A04D112051144DB071944F0BDD907DA
:103BF000204B194300E0D9070020F0BD0029DDD19A
:103C0000002CDBD1F0BD0132C6074008CD072843A8
:103C10004908002EE1D0D9E73C2E29DA203E403772
:103C20001400BC4000D00124F24014431A00BB40F1
:103C30001C43D317ACE7AC46202F08DA203604002B
:103C4000B4400D00B540F84039412843A5E73C2F6A
:103C50000CDA203F40360400B44000D00124F84084
:103C600004430800B1400C43C117EAE710001900F3
:103C7000002494E70000F07FF0B50C0D661E3605B9
:103C8000891BE60A6405640D02D0651CED0A04D0A8
:103C9000002001210905803C2403A4461C0D671E59
:103CA0003F05DB1BE70A6405640D02D0651CED0AC5
:103CB00004D0002201231B05803C24037740644488
:103CC00097B484B296B27443070C7E43150C6F43CD
:103CD00080B26843361802D3012000043F18300434
:103CE000350C00197D41844688B29AB250430C0CC1
:103CF00062431F0C7C438EB27E43921902D301268D
:103D00003604A4191604170C3618674101BC81B299
:103D10009AB25143040C62431B0C5C4380B258437B
:103D2000121802D30120000424181004130C4018A8
:103D300063412D185E410020474106BC88B293B212
:103D400058430C0C6343120C544389B251435B1823
:103D500002D301210904641819041A0C09186241DC
:103D60006D1856410020474118BCF902720D1143ED
:103D7000F0026A0D1043ED020A0D03D16D194041A6
:103D80004941013B124E9B1B7600B3420ED26D009F
:103D900007D30130002671416646354301D1400802
:103DA00040001B05C918E4072144F0BD0BDA0133BC
:103DB00006D1013004D101314F0D01D04908F2E79D
:103DC000E1070020F0BD013631050020EBE70000DF
:103DD000FF030000F0B51C0D671E3F05DB1BE70A63
:103DE0006405640D02D0661CF60A04D0002201238B
:103DF0001B05803C2403D0252D060026F6432E66A5
:103E00001E096E66CE0FF619B44649004F0D02D05A
:103E10007E1CF60A03D000200021403F3F033E1BDA
:103E2000B600B444013F7F05C91B49082E6F013617
:103E300076089C02950D25437543ED137543AD132C
:103E400001356D10F603761B0CB4CC02450D2C43E6
:103E5000A2B2B3B25A43270C7B43350C6F43A4B2D2
:103E60006C431B1902D3012424043F191C041D0CAC
:103E7000A4187D4124196D41009A91B2ACB26143FE
:103E8000170C7C432B0C5F4392B25A43A41802D305
:103E900001221204BF182204230C52187B41019CFA
:103EA0006C431B19520ED9010A434401A01A81B276
:103EB000B2B2514303145A43360C734387B277436B
:103EC000D617D21900277E4136049B191704160C09
:103ED0007F185E417316ED18F3010026803375419B
:103EE000A90F06D16400690AE8055B0A184309D2E4
:103EF0002FE00422944480337541A90AA8059B0A47
:103F0000184326D3404149412404009A019B0D00E7
:103F10005543641B4343E41A95B286B27543170CAC
:103F20007E43030C5F4392B25A43B61802D3012278
:103F30001204BF183204330C52197B4152429C4187
:103F4000002C02D40022013051414008CA0710431E
:103F5000490802B06246D7079210084BD218084BA6
:103F60009A4203D212058918C919F0BD0020002A0F
:103F700001DC3900F0BD01331905F5E7FD03000050
:103F8000FE070000002200B5203200F010F8080003
:103F900000BD002200B500F00CF8CA179A4200D10B
:103FA00000BDD8430121C907414000BD00220B15C7
:103FB0000AD410B5944600F0A7F81414013400DABE
:103FC0000021CB17144C2047002000217047624489
:103FD000343A0CD40C2A07DA040091409040524243
:103FE0002032D440214310BDD843D94310BD2032E4
:103FF00007D40C469440524220321141D040204315
:1040000010BD0800C917203203D45242203210419B
:1040100010BD1800190010BDCF3F00104A00520D0E
:10402000144BD21A13DDFF2A1EDAD205CB0FDB07A1
:104030001A43C300400F0903490A084310435B00B9
:1040400001D301D0013070474308FBD2704702D042
:10405000C80FC00770470A0312130132F8D1420F8C
:10406000072AF5D1012200E0FF22C80F00028018C4
:10407000C00570478003000000210A00002104E011
:1040800000210A00C11704E00022002306E0C04618
:104090000022CB1758405940C01A994130B5184CEE
:1040A000A21A002903D1010010D00020203A4C159B
:1040B00012D104D2013A001849414C0DFAD3114CE7
:1040C000A24204D212058918DB07C91830BDD243B9
:1040D000520D00200021F5E703D4013A00184941B0
:1040E000FBD50B324405C00A4D052843C90A6400BC
:1040F00003D0002460416141E1E7E0D34408F8E7E0
:1041000032040000FE0700000A0DCC0F531E1B05F1
:10411000C91A520503D3C943404200D30131520D9D
:1041200003D0531CDB0A07D0121B00206400611C63
:1041300089078912803A1203014BD21A7047000096
:10414000FF03000051434343C9188C46110C83B24E
:104150004B4310B4040C614392B280B250436243AB
:104160001C041B0C001910BC59411304120CC0187C
:10417000514161447047000007B548404140484004
:1041800001E0C04607B54200120E03D0FF2A03D15A
:10419000420218D8C00DC0054A00120E03D0FF2AF3
:1041A00003D14A020FD8C90DC9050122414005D4E7
:1041B000414001D5814207BD884207BD01434918EE
:1041C00001D0C043001807BD00B5FFF7DBFF01D9E0
:1041D000002000BD012000BD01231B064200D218B3
:1041E00004D84A00D21801D8002070470120704737
:1041F00070B513231E782A48FFF74CF80500012EEE
:1042000011D0012E09DDAB1E1B789B007F2B40DDFA
:1042100024488022290000F091F82348FFF732F863
:10422000224B186070BD1F485422290000F086F808
:104230001F4B1A881F4B9A421CD1A7239B011A8837
:104240001D4B9A4216D11D4B1A881D4B9A4211D113
:104250001C4B1A8894239B019A420BD11A4B1A8843
:104260001A4B9A4206D11A4B1A681A4B9A4201D13C
:10427000152307E01848FDF7F5FE184C094A990088
:104280008C5001331F2BF8D9144B064A1362D361AB
:10429000B7E7134B134A14484221FDF74BFEC046C3
:1042A00053460000181000204C330000141000206A
:1042B000EE290000C40F0000C20D0000962B000084
:1042C000C0B50000182B0000CC2A000010B500007B
:1042D000FC2C000051ED8764FCAC0010ED42001096
:1042E00098B9001014BA0010CCB9001007B5604698
:1042F000002800D100BE01880A0A0230DF2AFAD164
:10430000C9B2820804D3028840880004104300E048
:104310000068024A5050039007BD000018100020AA
:1043200001480421014B1847C0020020A5320010AB
:10433000014B1B6818470000C0020020014B5B685E
:1043400018470000C0020020084B5B6A994209D858
:10435000064A926A824207D2994201D0012002E0C5
:10436000002000E0002070470120FCE700400540ED
:1043700010B50300080011001B68984710BD00002D
:10438000F8B507000D001600437D002B02D0002475
:1043900000200CE003681100280098472DE03B7DC9
:1043A00010E03B68154802219847601C0134B44274
:1043B00014DA002CF3DD2B19013B1B780D3B5A421C
:1043C0005341DBB22A5D0A2AF0D1002BEED1A04284
:1043D000E7DA3B68211A28189847E2E7B04203DA87
:1043E0003B68311A28189847002E06DDAD19013DAB
:1043F0002B780D3B5A4253413B75F8BD88BA0010EB
:1044000070B505000368002B16D00C4B1C6805E046
:10441000290004C92000FFF7B3FF2469002C09D04C
:104420002368002BF9D0064B1B68002BF0D0A34269
:10443000F3D1EDE700232B6070BDC046900E002045
:10444000940E002070B505000C000B68802B05D081
:1044500023685A1C2260E418257170BD0800FFF71C
:10446000CFFFF5E710B5002B02DB0260436010BD03
:10447000024B034A03483F21FDF75CFDD4AF001017
:104480008CBA0010F0AF001010B582B00400FDF738
:1044900013F802000B006846FFF7E4FF009A019B47
:1044A00022606360200002B010BD000070B582B0D1
:1044B000060014001D00FA22920000230698002135
:1044C000FFF740FE02000B0012196B41002B09DBC5
:1044D0006846FFF7C7FF009A019B326073603000A7
:1044E00002B070BD01225242004BF1E7FFFFFF7F97
:1044F00030B585B004000D0002A8FFF7C5FF029A91
:10450000039B00952000FFF7D1FF200005B030BDD0
:10451000F8B5CE46474680B507000E00914698464E
:104520001BE0A368002B04D0310038009847002816
:1045300018DC2469002C06D00C4D2D68002DF0D01D
:10454000A542F6D1EDE748464146FFF7FDFE0028BB
:1045500006D101200021FCF7CFFF054B1C68E9E7DD
:1045600001204042C0BCB946B046F8BD940E0020C0
:10457000900E002000B583B0FA2189006846FFF74D
:10458000B7FF009A019B024806F0A2FB03B000BDF2
:10459000980C002010B5024806F082FB10BDC04602
:1045A000980C0020F0B5CE46474680B583B0060093
:1045B0000D0090461C00FFF7DDFF81466B1C05D007
:1045C000002C08D0194F1A4B1C6807E0300000F08F
:1045D00021FF0500F4E7174FF5E72469002C17D0F9
:1045E0002368002BF9D0144B1B68002B01D0A34289
:1045F000F3D12A0031002000B8474346002BECD00D
:104600006B46D91D0A230B7001222000B847E4E74E
:104610004B46002B07D16B1E9D41E8B203B0C0BCD6
:10462000B946B046F0BDFFF7B5FFF4E7714300109F
:10463000900E002081430010940E002010B503005E
:1046400008001100002B05D1044B1A685B68FFF7C6
:104650005FFF10BD01204042FBE7C046C0B2001022
:1046600010B5030008001400013B012B06D80023FD
:1046700000222100FFF796FF200010BD01204042DC
:10468000FBE7012040427047012040427047000094
:10469000094A01E010331A001368002B08D0834246
:1046A000F8D1002907D1036913600023036102E0F8
:1046B000002900D010607047900E002010B5064B06
:1046C0001C6801E098472469002C03D06368002B24
:1046D000F8D1F8E710BDC046900E002070B5050077
:1046E00000F098FE04000023012201002800FFF7DB
:1046F00059FFFFF7E3FF200070BD000070B5A2B0C6
:1047000004000E00FFF736FF0500002301930A485E
:104710003300220001A9FEF79DFD040001A8FFF768
:104720006FFEFFF7CBFF002D02D1200022B070BD3D
:10473000FFF730FFF9E7C046454400100FB400B55D
:1047400083B004A901C90191FFF7D8FF03B008BCE9
:1047500004B0184710B500F0FFF8012010BD0000AC
:1047600010B582B00C00144BC3185A425341134A7F
:104770005B009B5E8B4204D06B46DA1D14700021F7
:1047800015E06B46DA1D0D23137000210029F3D1CB
:1047900083699B06FCD41378036001310132F5E78D
:1047A00083699B06FCD41378036001310132002930
:1047B000F6D002B010BDC0460080FCBF2C11002016
:1047C00082B000226B46D91D06E08369DB06FCD46B
:1047D00003680B7001320131002AF6D06B46D8799C
:1047E00002B0704770B506000D00002405E0315D91
:1047F000034B1868FFF7B4FF0134AC42F7DB70BD20
:1048000030110020F8B506000D00002705E07C1CE3
:10481000F719FFF7D5FF38702700AF4204DA0E4AC8
:1048200010688269D206F2D50C4A1268002A0CD0B0
:10483000094A12685021916310003430526B1839C4
:1048400011408022520102431160002F01D0380034
:10485000F8BD033FFBE7C046301100201C0E0020CE
:1048600010B5064B1B68002B06D0054A12680021C4
:104870009163044A1068984710BDC0461C0E002082
:1048800030110020200E002070B505000E001C4BDA
:104890001A681C4BD31859424B4114331C00002892
:1048A0001ED0194B1B68002B04D0174B1D60174BF3
:1048B0001E6070BD16492000FBF7AAFF01212000F1
:1048C000FBF796FF0E4B1B6850229A631900343198
:1048D0005B6B183A1A4080235B010B431A60E4E7D4
:1048E000094B1B68002BE0D00023936300212000BC
:1048F000FBF77EFF06492000FBF7B4FFD5E7C04673
:10490000301100200080FCBF1C0E0020200E002073
:104910006148001070B50D001C000D4B1860002A96
:104920000BDA002C0EDA0A4B18682900FDF7EAF8BA
:1049300008480121FFF7ACFE70BD02211000FBF713
:104940004FFEEEE702212000FBF74AFEEBE7C046F0
:1049500030110020D002002010B5064B1B78064B0A
:104960001B78E1210123002249020448FFF7D2FF0E
:1049700010BDC046A8C60010A4C6001000400340E9
:1049800010B5514300F02AF8041E0ED00300083B76
:104990005A6803239A43043A242A15D80300132A99
:1049A00005D800221A605A609A60200010BD0021CC
:1049B0000833016041601B2AF3D98160C160242A59
:1049C00006D003001033ECE70021FFF7B1FCECE761
:1049D0000300016118334161E3E7C046F0B54E467C
:1049E0004546DE465746E0B50D000B35060083B060
:1049F000162D22D8102900D9B2E000F0A9FA10250E
:104A000018230220CC4FFB181A005C68083A944225
:104A100000D1B5E0032362689A431300E268A168FD
:104A2000CA6091600122E318596830000A435A6055
:104A300000F090FA2000083095E007239D4300D550
:104A40008EE0A94200D98BE000F082FAFC235B00E3
:104A50009D4200D2A1E1680A00D18BE0042800D970
:104A600074E138239846A80980443930C100B24F18
:104A700079184C680839A1420ED003239C4604E003
:104A8000002ACBDAE468A14206D062466368934309
:104A90005A1B0F2AF4DD40463A003C690832944222
:104AA00000D178E003236168994389460B00491BD4
:104AB0000F2900DD75E17A613A610029B2DA8022BE
:104AC0009200914500D310E15909DA0801238B4087
:104AD000D2007968D2190B4391687B60E260A160D3
:104AE0009460CC60012182109140994259D80B42C8
:104AF00005D103229043490004300B42FBD003232D
:104B00009846C3009946B944CC4682466346DC6861
:104B1000A44507D126E1002A00DB2FE1E468A44583
:104B200000D11FE14246636893435A1B0F2AF2DD0E
:104B300001208046611905436560A068E568083773
:104B4000C560A86040461043F960B9604860CF6016
:104B500030008F60E25000F0FDF92000083002E0E4
:104B60000C230020336003B0F0BCBB46B246A9461C
:104B7000A046F0BD80213F2340209846890076E77B
:104B8000DC680230A34200D044E73A003C690832B6
:104B9000944200D086E701217B68821091409942BF
:104BA000A5D90323BC6862689A439146954203D80D
:104BB000531B0F2B00DD8AE023004B445F4A019317
:104BC0005F4B93469A4612681B68EB18013200D17E
:104BD00036E15C4A944663441B0B1B030093300090
:104BE000009900F063FB03008046013300D1F3E03D
:104BF000019B834200D9EDE05246009852680300C1
:104C00009446514663444B6001991A00414500D1D6
:104C10004BE15B461B68013300D150E143460199EB
:104C20005B1A9A1853465A600723424641461A4077
:104C30000192194200D10DE108239846881A424B8F
:104C40000099804441449B1A5B1A1B051B0D00917F
:104C5000300019009B4600F029FB431C00D14AE1BB
:104C60004346C01A03005B440093534652465B68B8
:104C700001215B44536042464046BA60009A0A43B1
:104C80004260BC4200D11EE14A460F2A00D81CE116
:104C900007200C3A8243606801400520114361609F
:104CA000A118486088600F2A00D92FE14246444687
:104CB00052685146C96A994201D25146CB62514667
:104CC000096B994200D389E051460B6386E00122CB
:104CD000290013431143651961603000BD606B60AA
:104CE00000F038F9200008303DE75A0A042A6BD951
:104CF000142A00D9BEE011005C325B31D2000823D7
:104D00005B429C46BA18944463469A6803239846CB
:104D1000944500D197E0434651689943494502D9EB
:104D200092689445F7D1D3689C467B686146A2603F
:104D3000E1608C60D460D5E62007002018070020D1
:104D4000D40D00200F10000008100000142852D9C4
:104D5000542800D996E06E239846280B80446F3083
:104D6000C10084E608239B46073BDC449B46DA44AB
:104D700043465246134200D0C8E64CE00122E318F5
:104D8000596830000A435A60E368A268D3609A60A9
:104D900000F0E0F820000830E5E62B00E8080833D2
:104DA00030E6012360191D43656078613861C26097
:104DB00082601A004B460A4342603000E15000F026
:104DC000C9F820000830CEE69A091100393238318E
:104DD000D20094E7BC4260D0BC68626803239A4367
:104DE000531B954202D80F2B00DD70E7300000F016
:104DF000B1F80020B7E65B23984680445C30C100E0
:104E000035E608235B429C46E1444B469B680138EB
:104E10004B4500D097E043460342F2D17B688B4379
:104E20007B604900994200D9BBE6002904D1B8E66D
:104E3000042294464900E2440B42F9D0504660E611
:104E400010330093CBE68910023B8B4079680B430B
:104E50007B606BE7009B300043445B421B051B0DEE
:104E600019009B4600F022FA431C00D0F8E600230C
:104E70009B46FAE6542A2AD81A0B11006F326E317B
:104E8000D2003CE7AA235B0098422AD8DD3B984633
:104E9000E80B80447830C100E9E553465B68009A2E
:104EA0009C46534662445A60B3E6090500D0B0E61A
:104EB0000200BC684A4401310A436260F9E65B467D
:104EC00042461A60B0E64446F3E641608EE7AA2106
:104ED00049008A4224D8DA0B110078327731D200A7
:104EE0000DE71A4B984224D87C239846A80C80449E
:104EF0007D30C100BBE5009A019B94464246083BC9
:104F000063449B1A009300239B46AEE621003000C9
:104F1000083101F0D9FA5346BC685B686268C8E69C
:104F20000A498A420BD89A0C11007D327C31D2009A
:104F3000E5E6FE217E237F209846890097E5FE2244
:104F40007E219200DBE67B686BE7C04654050000DB
:104F50007047C0467047C046F0B557464546DE46E6
:104F60004E46E0B50C000700904683B0002900D102
:104F7000A8E045460B35FFF7EBFF162D70D810253E
:104F80001023A84570D82600083E71680322080047
:104F9000904381460096984200DB77E0C24A301881
:104FA00093469268824200D1CAE042680190009222
:104FB000012292465046009A8243019894468346C5
:104FC000DC44624650465268024200D071E0032041
:104FD000009ACB4682439446E3449B4550DA5246BE
:104FE0000A4211D103213268B21A924652688A43AA
:104FF0006146511849448B46994200DB78E04A44A7
:1050000093469A4200DB78E041463800FFF7E6FC21
:105010008046002820D07368B4460093012300998D
:10502000020099430B00083A6344934200D1F7E031
:105030004A46043A242A00D9F7E003002100132A43
:1050400000D9C8E00A681A604A685A608A689A609B
:105050002100380001F038FA3800FFF77BFF07E045
:1050600007239D432B1E8CDA0C233B6000239846BC
:10507000404603B0F0BCBB46B246A946A046F0BDD0
:10508000D946019AD3689268D3609A604B465B1BFD
:105090000F2B1CD801214A4673680B4013437360E1
:1050A0004E447368194371603800FFF753FFA04600
:1050B000DEE70842A8D103213268B21A924652684C
:1050C0008A439CE71100FFF789FC8046D0E7012066
:1050D0007268711902400343154375604B604E447A
:1050E0007368083118437060380001F0EDF9DBE7B0
:1050F000019AD3689268D3609A6053465246DB683F
:1051000092685646D3609A604A46043A0836242A82
:105110006BD83300132A09D9534621689960616816
:10512000D9601B2A00D98EE0083410332268D94692
:105130001A6062685A60A26834009A605646A5E711
:105140005068032290430D3282469446CA44AC44D0
:10515000E24552DACA0700D556E73168721A0321D0
:10516000924652688A4310180100494400918C45C8
:1051700000DD44E753465246DB689268D3609A608C
:1051800008234A465344043A9846242A75D8132AD9
:1051900008D95346216899606168D9601B2A71D883
:1051A0000834103322681A6062685A60A2689A60F4
:1051B000534659195B469960009B38005A1B0123DE
:1051C0001A434A605246526813401D4353465D607D
:1051D000FFF7C0FE4CE721680160616841601B2A4F
:1051E00027D82100083308312CE721003000340093
:1051F00001F038FBD946564648E75B460098A04682
:105200004119996053465A1B01231A434A60416869
:105210000B401D43456038000091FFF79BFE27E7D8
:1052200003225B689343994430E7210001F01AFBA5
:105230000EE7A1688160E168C160242A0CD02100DA
:1052400010331031FEE6A1681961E1685961242A22
:105250000BD01034183369E7226921000261020083
:105260006069183118335061ECE622699A61524640
:1052700061692033D161183458E72100180001F02A
:10528000F1FA95E7A1681961E1685961242A02D011
:105290001034183386E722699A61524661692033D7
:1052A000D16118347EE7C04620070020002370B586
:1052B000064D040008002B60FCF71CFE431C00D0C8
:1052C00070BD2B68002BFBD02360F9E7080E00208F
:1052D0000EB430B581239CB06A461FAC9B0020CC35
:1052E00093820290069000F095F80B4B6A460A9361
:1052F00000230E931393013BD382084B0390079036
:105300002A00186802A92300019400F0B1F81CB02B
:1053100030BC08BC03B0184799530010E8020020C5
:105320000CB470B581239CB06A4620AC05009B008C
:10533000080040CC93820291069100F06BF80B4B71
:105340006A460A9300230E931393013B0390079040
:10535000D38228002300320002A9019400F088F8CB
:105360001CB070BC08BC02B01847C046995300106E
:1053700070B50C000E25495F01F0CAFA002803DB66
:10538000236D1B18236570BDA389024A1340A381B6
:10539000F9E7C046FFEFFFFF00207047F8B50C00AB
:1053A0001F000C23C95E05001600CB050AD40A4B6A
:1053B000320019402800A1810E23E15E3B0001F07C
:1053C0000FF8F8BD0E23E15E0022022301F0C6F9BA
:1053D0000C23E15EEBE7C046FFEFFFFF70B50C006A
:1053E0000E25495F01F0BAF9431C06D08023A2893B
:1053F0005B011343A381206570BDA389014A13405B
:10540000A381F9E7FFEFFFFF10B50E23C95E00F09F
:10541000FBFF10BD10B583070AD00300032102E093
:1054200001330B4205D01A78002AF9D1181A10BDA1
:10543000030019680C4A0D4C8A188A4322420FD186
:105440005968094A04338A188A43224208D15968A4
:10545000054A04338A188A432242F1D000E001331E
:105460001A78002AFBD1E1E7FFFEFEFE80808080F3
:10547000F0B55746DE464E464546E0B5C94C0F00EE
:10548000A5440A930C23C95E80239B0182461942DE
:1054900005D10B43BB81796EC34B0B407B66137800
:1054A000013213930392002B01D100F001FF00227F
:1054B00091460B92049208920592BC4A934652463A
:1054C000CA46914608215A460C00D25C144011424B
:1054D00029D1252B13D1039B00251A780023984648
:1054E00004330F209C46039B591C1300253BDBB261
:1054F000532B0ED8AE4E9B00F3589F4603917B680A
:10550000002B3CDD039B3A68013B11781B789942E4
:105510002CD00598B1239B009D44F0BCBB46B246FD
:10552000A946A046F0BD082455464E467B680BE0D0
:1055300059463A681378CB5C1C420DD07B68013227
:10554000013B01357B603A60002BF1DC3900300013
:1055500002F0CEFE0028EBD0AA46B146039A13789B
:10556000013213930392002BACD1D2E77B68013256
:10557000013B7B6001239C463A60E244EEE7390040
:10558000484602F0B5FE0028BCD0059B002B02D097
:10559000BB895B06BDD501235B420593B9E78F2329
:1055A0002B42B6D143469B0043445B009A183023FC
:1055B0005B429846039B904403915A7893E70426F4
:1055C00003917B68002B52DD6B0658D5032E00D16A
:1055D00087E0042E00D1FDE1012E00D1C7E1022EAB
:1055E00000D023E14346002B01D1013B9846EB0755
:1055F00000D576E3EB0601D400F05AFC59463A6830
:105600001378CB5C1B07A9D401323A6042467B6811
:105610000124013B082546467B60012A11D100F098
:10562000B4FE59463A681378CB5C1D4211D17B68B1
:105630000132013B01347B603A60A64201D100F0A7
:105640000AFE002BEDDC3900484602F051FE00282E
:10565000E7D0A24482E780239B001D43554B0326DD
:105660000B93102308937B680391002BACDC39006B
:10567000484602F03DFE002887D16B06A6D4594665
:105680003A681378CB5C1B07A0D521004B465446E3
:10569000A9468A461D0007E0594601323A60137850
:1056A000CB5C0821194213D07B680134013B7B603D
:1056B000002BF1DC3900280002F01AFE002800D08F
:1056C00063E759463A681378CB5C08211942EBD15D
:1056D00053462A00A2464D461C009146032E00D098
:1056E00077E74346AE220021013B520006919342E8
:1056F00005D95D3BFF3B06935E23FF339846D823D5
:1057000000221B011D4358AB44461E0090460C93DB
:105710003A6811780B002B3BDBB24D2B00D9B3E07C
:1057200025489B00C3589F4601231D43214B032658
:105730000B9308230391089343E701231D431F4B59
:1057400003260B930A23039108933AE718A801F064
:10575000F3F84023012603901D4332E7402300263F
:105760001D4303912DE7882376E70226039128E75E
:10577000104B03260B930A230391089321E7284239
:1057800000D0C6E602231D43039B03915A78AAE684
:10579000284200D0BDE663461D43039B03915A781F
:1057A000A1E6C0463CFDFFFFFFDFFFFFD9BE0010B2
:1057B000F0BA00104180001040BC0010B57C001011
:1057C000CF4B03260B93002303910893F9E628425D
:1057D00000D09EE6039B5A786C2A01D100F02FFD81
:1057E000012303911D437EE60391EB0600D5B5E648
:1057F0006B0701D500F0EEFCEB0701D500F05CFD76
:10580000AB0701D400F058FD51460A9B04CB116050
:10581000C91751600A93A1E643462B43984600D02E
:1058200077E6039B10255A7803915CE64446002CEA
:1058300000D10134EB0701D500F015FCEB0600D5D3
:1058400018E30A9D230002CD01224846009702F08A
:105850006FFD002800D198E6059B82440133059333
:105860000A957BE6089B0A2B0EDDA64B1D40317086
:1058700001367B68013B7B60002B71DD01323A60B1
:10588000013C002C00D043E73400EB0508D50C9B0D
:105890009E4201D900F0BBFC0C9B9C4200D138E633
:1058A00010231A002A402B4200D0FFE1089B2270EF
:1058B000484600220C990B9EB047AB0600D5EEE19E
:1058C0006B0701D500F079FCEB0700D5E7E1AB07EA
:1058D00000D4E4E18C4B0B9A9A4201D100F04DFDCB
:1058E00000224846089B0C9902F0EAFA0A9B04CB76
:1058F00003C20A93D7E1089B84485B00C35E089308
:10590000804B1D40B3E7C0238020DB002B4080008C
:105910008342B9D17E4B1D40A023DB001D431023E1
:105920000893A4E780232B42AED09D439FE7089BBA
:1059300076485B001B5E0893082B96DCA4E72B05DA
:1059400095D5089B002B05D180239B001D43F93B77
:10595000FF3B08936B0500D4F6E36E4B1D4086E7D2
:105960003900484602F0C4FC002889D08CE7434641
:10597000002B01D1013B9846EB0700D5E0E2EB0696
:1059800000D429E23A6818AD1378EB5C002B00D103
:10599000BFE501323A6042467B684446013B7B608A
:1059A000012A0DD114E03A681378EB5C002B0FD07C
:1059B0007B680132013B01367B603A60B44207D01C
:1059C000002BF0DC3900484602F092FC0028EAD0B7
:1059D000B244C3E5484600F0B9FE0368AE220E9318
:1059E00043460021013B52000F91934205D95D3B94
:1059F000FF3B0F935E23FF339846F023DB001D43EC
:105A0000002306931193109309930D9358AB1E0036
:105A10000C9323004446A84655469A463A681178A6
:105A20000B002B3BDBB24E2B03D83B489B00C358EB
:105A30009F460E9B1B788B4217D1802043468000E7
:105A4000034212D0354803409846099B0D933170AC
:105A5000013C01367B680135013B7B60002B00DC9B
:105A600015E101323A60002CD8D1099B5446AA4670
:105A70004546002B00D031E1069B013B012B01D8AC
:105A800000F057FC631E062B00D97FE0022C01D8E2
:105A900000F08AFC032C79D03B004F469846A9467B
:105AA00025003400013C42463800217802F0DEFB3C
:105AB00063199B1BDBB2032BF4D82C00043CE4B22B
:105AC000E343F6185346013B1B1B4D469A46B94625
:105AD00047465BE0069B5344002BC6D14046104B23
